{
  "contractName": "Proxy",
  "abi": [
    {
      "inputs": [
        {
          "internalType": "address",
          "name": "_currentAddress",
          "type": "address"
        }
      ],
      "stateMutability": "nonpayable",
      "type": "constructor"
    },
    {
      "stateMutability": "payable",
      "type": "fallback",
      "payable": true
    },
    {
      "inputs": [],
      "name": "_initialize",
      "outputs": [
        {
          "internalType": "bool",
          "name": "",
          "type": "bool"
        }
      ],
      "stateMutability": "view",
      "type": "function",
      "constant": true
    },
    {
      "inputs": [],
      "name": "owner",
      "outputs": [
        {
          "internalType": "address",
          "name": "",
          "type": "address"
        }
      ],
      "stateMutability": "view",
      "type": "function",
      "constant": true
    },
    {
      "inputs": [
        {
          "internalType": "address",
          "name": "_newAddress",
          "type": "address"
        }
      ],
      "name": "upgrade",
      "outputs": [],
      "stateMutability": "nonpayable",
      "type": "function"
    }
  ],
  "bytecode": "0x608060405234801561001057600080fd5b506040516105003803806105008339818101604052810190610032919061011d565b33600560006101000a81548173ffffffffffffffffffffffffffffffffffffffff021916908373ffffffffffffffffffffffffffffffffffffffff16021790555080600660006101000a81548173ffffffffffffffffffffffffffffffffffffffff021916908373ffffffffffffffffffffffffffffffffffffffff1602179055505061014a565b600080fd5b600073ffffffffffffffffffffffffffffffffffffffff82169050919050565b60006100ea826100bf565b9050919050565b6100fa816100df565b811461010557600080fd5b50565b600081519050610117816100f1565b92915050565b600060208284031215610133576101326100ba565b5b600061014184828501610108565b91505092915050565b6103a7806101596000396000f3fe6080604052600436106100385760003560e01c80630900f0101461012b57806380ae4ebc146101545780638da5cb5b1461017f57610039565b5b6000600660009054906101000a900473ffffffffffffffffffffffffffffffffffffffff169050600073ffffffffffffffffffffffffffffffffffffffff16600660009054906101000a900473ffffffffffffffffffffffffffffffffffffffff1673ffffffffffffffffffffffffffffffffffffffff1614156100bc57600080fd5b600080368080601f016020809104026020016040519081016040528093929190818152602001838380828437600081840152601f19601f820116905080830192505050505050509050600080825160208401855af43d604051816000823e8260008114610127578282f35b8282fd5b34801561013757600080fd5b50610152600480360381019061014d91906102e4565b6101aa565b005b34801561016057600080fd5b50610169610248565b604051610176919061032c565b60405180910390f35b34801561018b57600080fd5b5061019461025b565b6040516101a19190610356565b60405180910390f35b600560009054906101000a900473ffffffffffffffffffffffffffffffffffffffff1673ffffffffffffffffffffffffffffffffffffffff163373ffffffffffffffffffffffffffffffffffffffff161461020457600080fd5b80600660006101000a81548173ffffffffffffffffffffffffffffffffffffffff021916908373ffffffffffffffffffffffffffffffffffffffff16021790555050565b600560149054906101000a900460ff1681565b600560009054906101000a900473ffffffffffffffffffffffffffffffffffffffff1681565b600080fd5b600073ffffffffffffffffffffffffffffffffffffffff82169050919050565b60006102b182610286565b9050919050565b6102c1816102a6565b81146102cc57600080fd5b50565b6000813590506102de816102b8565b92915050565b6000602082840312156102fa576102f9610281565b5b6000610308848285016102cf565b91505092915050565b60008115159050919050565b61032681610311565b82525050565b6000602082019050610341600083018461031d565b92915050565b610350816102a6565b82525050565b600060208201905061036b6000830184610347565b9291505056fea2646970667358221220d6f0727c8992cf6b84e7ab4efac772ce92221cff78b9dcd50a9483823dbef8d064736f6c634300080b0033",
  "immutableReferences": {},
  "source": "pragma solidity >=0.4.22 <0.9.0;\r\n\r\nimport \"./Storage.sol\";\r\n\r\ncontract Proxy is Storage {\r\n    address currentAddress;\r\n\r\n    constructor(address _currentAddress) public {\r\n        owner = msg.sender;\r\n        currentAddress = _currentAddress;\r\n    }\r\n\r\n    function upgrade(address _newAddress) public {\r\n        require(msg.sender == owner);\r\n        currentAddress = _newAddress;\r\n    }\r\n\r\n    //FALLBACK FUNCTION.\r\n    fallback() external payable {\r\n        address implementation = currentAddress;\r\n        require(currentAddress != address(0));\r\n        bytes memory data = msg.data;\r\n\r\n        //DELEGATECALL EVERY FUNCTION CALL\r\n        assembly {\r\n            let result := delegatecall(\r\n                gas(),\r\n                implementation,\r\n                add(data, 0x20),\r\n                mload(data),\r\n                0,\r\n                0\r\n            )\r\n            let size := returndatasize()\r\n            let ptr := mload(0x40)\r\n            returndatacopy(ptr, 0, size)\r\n            switch result\r\n            case 0 {\r\n                revert(ptr, size)\r\n            }\r\n            default {\r\n                return(ptr, size)\r\n            }\r\n        }\r\n    }\r\n}\r\n",
  "sourcePath": "C:\\Users\\MrSickness87\\proxyContract\\contracts\\Proxy.sol",
  "compiler": {
    "name": "solc",
    "version": "0.8.11+commit.d7f03943.Emscripten.clang"
  },
  "schemaVersion": "3.4.4",
  "updatedAt": "2022-06-05T06:17:02.257Z",
  "networkType": "ethereum",
  "devdoc": {
    "kind": "dev",
    "methods": {},
    "version": 1
  },
  "userdoc": {
    "kind": "user",
    "methods": {},
    "version": 1
  }
}